:020000040000FA
:1000000010280000000000009C2882073F340634BE
:100010005B344F3466346D347C3407347F3467345A
:100020008316031306309F008B01831603130711F9
:100030008710871107128712071087108312031386
:1000400083120313A6012730831603139900831626
:1000500003131813181218159816831603138C1609
:1000600083120313981718131816981118110B17E9
:10007000831203139701043092000C309700003074
:100080009D00FE3083160313920083120313803009
:1000900095009B00831203130030A5008312031305
:1000A000A801831603138601051485100511831614
:1000B00003138112811101158110011083120313A2
:1000C0008B168B17831203130130A0000230A1009E
:1000D000FF30B2008E2074202C18A310A50A25082A
:1000E000103A0319A5016A282030B10083202C089A
:1000F000AB002A08AC002B06031977282C18003413
:10010000AC1801347428831203138920B10B83289F
:10011000080083120313B00B892808002508013E4C
:10012000F63E031C9728A1000130A00008000A3EFB
:10013000A1000030A0000800F1000308F0000A0848
:10014000F200831203138C1E2429831203131A084E
:1001500083120313A70028088207B428D228E228B4
:10016000E828F528FE280929A71F1D2927080F3987
:100170002506031D1D292708F039903A031DC328C1
:100180000130A8001D292708F039803A031DCA282C
:100190000330A8002708F039B03A031DD1280530F4
:1001A000A8001D2983120313A3148312031307103D
:1001B000831203132708A70D95009B00B20002309D
:1001C000A8001D290030A8008312031307141D295D
:1001D0000430A80083120313270883120313320686
:1001E00003191D290030A8001D290030A800831222
:1001F0000313071083120313A3101D290030A80056
:10020000831203132708403A031D1D290630A80056
:100210001D290030A80083120313271B16298312FF
:10022000031387108312031323101D298312031352
:1002300087148312031323141D298316031398189C
:100240004E2118195621A128831203130B1D48298A
:10025000221837298312031320082A1405182A109C
:10026000851405110520231880388600462983123D
:1002700003132108AA140518AA1085100520A31835
:10028000803886000515462985100511A20A0B1134
:1002900072088A0070088300710809008312031332
:1002A000261483120313181218160800831203135E
:0C02B000A614831203131812181608007D
:02400E007A3FF7
:00000001FF
